:020000040800F2
:1000000000200020B1090008E9040008EB04000802
:1000100000000000000000000000000000000000E0
:10002000000000000000000000000000ED040008D7
:100030000000000000000000EF040008F1040008C8
:10004000010A0008010A0008010A0008010A000864
:10005000010A0008010A0008010A0008010A000854
:10006000010A0008010A0008010A0008010A000844
:10007000010A0008010A0008010A0008010A000834
:10008000010A0008010A000800000000010A000837
:10009000010A0008B9030008010A0008010A000863
:1000A000010A0008010A0008010A0008010A000804
:1000B000010A000800000000010A0008000000001A
:1000C00010B5064C2378002B07D1054B002B02D02E
:1000D000044800E000BF0123237010BD0C00002085
:1000E000000000005C0A0008044B10B5002B03D090
:1000F0000349044800E000BF10BDC04600000000F6
:10010000100000205C0A0008002243088B4274D3D0
:1001100003098B425FD3030A8B4244D3030B8B4208
:1001200028D3030C8B420DD3FF22090212BA030C11
:100130008B4202D31212090265D0030B8B4219D3F2
:1001400000E0090AC30B8B4201D3CB03C01A524112
:10015000830B8B4201D38B03C01A5241430B8B425A
:1001600001D34B03C01A5241030B8B4201D30B0343
:10017000C01A5241C30A8B4201D3CB02C01A52416A
:10018000830A8B4201D38B02C01A5241430A8B422D
:1001900001D34B02C01A5241030A8B4201D30B0216
:1001A000C01A5241CDD2C3098B4201D3CB01C01A30
:1001B000524183098B4201D38B01C01A524143093A
:1001C0008B4201D34B01C01A524103098B4201D328
:1001D0000B01C01A5241C3088B4201D3CB00C01A95
:1001E000524183088B4201D38B00C01A524143080D
:1001F0008B4201D34B00C01A5241411A00D2014632
:10020000524110467047FFE701B5002000F006F8A4
:1002100002BDC0460029F7D076E770477047C04658
:10022000F0B5DE4657464E464546E0B58BB018223F
:10023000002104A800F0E5FB5D4B5A698021C90349
:100240000A435A615A690A400392039A5A69802103
:1002500089020A435A615A690A400292029A5A690B
:100260008021C9020A435A615B690B400193019BDB
:10027000504D0126AE6202239A46AB620233994684
:10028000AB6204339846AB6208339B46AB621033D3
:10029000AB624022AA628021A96204960896902748
:1002A000FF0504A80100380000F027F9504604902B
:1002B00000240594089604A80100380000F01DF9F8
:1002C000484604900594089604A80100380000F000
:1002D00014F9404604900594089604A801003800DB
:1002E00000F00BF90496059606940794089404A868
:1002F0000100280000F001F950460490059606948C
:100300000794089404A80100280000F0F6F8484675
:100310000490059606940794089404A80100280008
:1003200000F0EBF840460490059606940794089474
:1003300004A80100280000F0E0F858460490059653
:1003400006940794089404A80100280000F0D5F84A
:1003500020230493059606940794089404AB19008F
:10036000280000F0CAF840220492059606940794EB
:10037000089404AB1900280000F0BFF88021049114
:10038000059606940794089404A9280000F0B5F88F
:1003900080239B0004930594089404A9280000F08E
:1003A000ACF80BB0F0BCBB46B246A946A046F0BDC7
:1003B000001002400004004810B50D4800F097F905
:1003C0000C4B5B69DAB2002A0BD0FF2213405B00B2
:1003D0001A40084B5A61084A136901218B43136183
:1003E00010BD044A5369E9210B435361F3E7C0464A
:1003F00028000020000400480044014072B6FEE7D7
:1004000010B50C480C4B03600C4B43600023836019
:100410000B4AC260036143618033836100F066FA76
:10042000002804D1074B802292031A6010BDFFF709
:10043000E5FFC04628000020004401403F1F0000A7
:10044000E703000000E100E010B51A4A136801213B
:100450008B431360174B1B68DB07FBD4164A1368EA
:1004600001210B431360144B1B689B07FBD5124BF8
:100470001A68F8218A4378390A431A605A68703139
:100480008A435A605A680D490A405A605A680321E3
:100490008A435A60084B5B680C221A42FAD108481A
:1004A00000F080FA032000F085F8002800D110BD8C
:1004B000FFF7A4FF0020024000100240FFF8FFFFFA
:1004C00000127A0010B500F09DF8FFF7BDFFFFF7AE
:1004D000A7FEFFF795FF034A136801210B43136042
:1004E000FEE7C04600440140FEE7FEE77047704764
:1004F00010B500F097F810BD7047F0B5002216E077
:100500000B699C46C4682B006B435E00F618F743EA
:10051000B44366465E433443C4604C68022C26D024
:100520004D6804683C406B432343036001320C6810
:100530002300D3403BD00123934025001D401C42A3
:10054000F4D04B68013B012BDAD88F6883682C000C
:100550006C4366003619B3437C43234383600E68C3
:10056000CC684368B343744323434360C8E7FF2D1B
:100570000DD84C69A446066A1C006C436C432501E7
:100580002D1BAE4365466C4334430462C8E74C6997
:10059000A446466A2D0A2C006C436C436C4325012B
:1005A0002D1BAE4365466C4334434462B8E70020DC
:1005B000F0BD000010B504000F4B1978FA20800040
:1005C000FFF7A2FD01000D4B1868FFF79DFD00F03D
:1005D00085F800280DD1032C01D901200AE0013053
:1005E00000222100404200F075F8054B1C600020FD
:1005F00000E0012010BDC0460400002000000020E3
:100600000800002010B5064A136810210B43136040
:100610000320FFF7CFFF00F097F9002010BDC04680
:1006200000200240034A1168034B1B785B181360DB
:100630007047C046700000200400002070B50028FC
:1006400011DB8308134DC0339B005C59032210401B
:10065000C000FC3216008640B44389010A40824043
:1006600022435A5170BD0F230340083B9B080633B9
:100670009B00094A944663445C6803221040C00012
:10068000FC3215008540AC4389010A408240224378
:100690005A60E7E700E100E000ED00E00138802368
:1006A0005B0498420FD2094A50600948036A1B0252
:1006B0001B0AC02109060B43036200239360073322
:1006C0001360002070470120FCE7C04610E000E006
:1006D00000ED00E010B5FFF7B1FF10BD10B5FFF75A
:1006E000DDFF10BD7047704770477047704710B509
:1006F0000400026813699B070FD5D3689B070CD5CC
:1007000003235B4213610433037703689B699B07F0
:1007100063D0FFF7E9FF00232377226813695B07A3
:1007200012D5D3685B070FD505235B4213610733EE
:10073000237723689A69C0239B001A4253D0200074
:10074000FFF7D2FF00232377226813691B0710D518
:10075000D3681B070DD509235B4213610D33237743
:100760002368DB699B0745D02000FFF7BDFF00230E
:10077000237722681369DB0612D5D368DB060FD511
:1007800011235B421361193323772368DA69C0238D
:100790009B001A4235D02000FFF7A6FF00232377E5
:1007A00022681369DB0702D5D368DB0730D42268DF
:1007B00013691B0602D5D3681B0630D4226813695F
:1007C0005B0602D5D3685B0630D4226813699B06AA
:1007D00002D5D3689B0630D410BDFFF784FF2000FC
:1007E000FFF783FF97E72000FFF77DFF2000FFF76B
:1007F0007CFFA7E72000FFF776FF2000FFF775FFDB
:10080000B5E72000FFF76FFF2000FFF76EFFC5E799
:1008100002235B4213612000FFF764FFC7E78123D7
:100820005B421361200000F08EF8C7E741235B4272
:1008300013612000FFF75AFFC7E721235B421361D2
:10084000200000F07FF8C7E70368214A904206D0F5
:100850008022D205904202D01E4A904203D17022DB
:1008600093434A6813431A4A904212D08022D20519
:1008700090420ED0174A90420BD0174A904208D0AF
:10088000164A904205D0164A904202D0154A90422C
:1008900003D1154A1A40CB681343802293434A6917
:1008A000134303608B68C3620B688362084B9842F2
:1008B00008D00A4B984205D0094B984202D0094B08
:1008C000984201D10B690363012343617047C0461D
:1008D000002C014000040040002000400040014086
:1008E0000044014000480140FFFCFFFF70B5041EBA
:1008F00026D03D23C35C002B1CD03D25022363552D
:10090000210001C9FFF7A0FF01234622A354083AA2
:10091000A3540132A3540132A3540132A35401322F
:10092000A3540132A3540132A3540132A35463559A
:10093000002070BD3C330022C25400F01DF8DCE7FB
:100940000120F6E77047704782B00A4B996901228F
:100950001143996199690A400092009ADA698021ED
:1009600049050A43DA61DB690B400193019B02B040
:100970007047C0460010024082B00268074B9A429E
:1009800001D002B07047064B9A69802189020A4360
:100990009A619B690B400193019BF2E7004401407F
:1009A00000100240014B18607047C0460000002054
:1009B0000D488546FFF7A0FD0C480D490D4A002360
:1009C00002E0D458C4500433C4188C42F9D30A4A04
:1009D0000A4C002301E013600432A242FBD300F072
:1009E00019F8FFF76FFDFEE700200020000000204F
:1009F0000C0000207C0A00080C000020740000207D
:100A0000FEE703008218934200D17047197001334A
:100A1000F9E7000070B500260C4C0D4D641BA410C6
:100A2000A64209D1002600F019F80A4C0A4D641BB1
:100A3000A410A64205D170BDB300EB58984701360B
:100A4000EEE7B300EB5898470136F2E7740A000866
:100A5000740A0008780A0008740A0008F8B5C0464D
:100A6000F8BC08BC9E467047F8B5C046F8BC08BC48
:040A70009E467047E7
:040A7400E90000088D
:040A7800C1000008B1
:0C0A7C0000127A000100000004000000DD
:04000005080009B135
:00000001FF
